:100000000C94FB000C94CC090C94F3090C941A0A80
:100010000C94410A0C9423010C9423010C94680A5B
:100020000C9423010C9423010C9465140C94F71286
:100030000C9423010C9423010C9423010C942301B0
:100040000C9423010C9423010C9423010C942301A0
:100050000C9423010C9423010C9423010C948F0A1B
:100060000C9423010C94D50E0C94070F0C942301CF
:100070000C9423010C9423010C9423010C94230170
:100080000C9423010C9423010C9423010C94230160
:100090000C9423010C9423010C9423010C94230150
:1000A0000C9423010C9423010C942301CF0BD20B4D
:1000B000C10BC50BCB0BF30BF30BF30BD60BDA0B0E
:1000C000DE0BE40BE80BF30BEE0B72756E2D627218
:1000D000696467650A000A000A0007060504010052
:1000E000080A0B0C0D090000000200090F000003B4
:1000F0000401000C000000000000000000000000EF
:1001000000000000040802011040804010204080E0
:10011000408008020401804020100201108010205D
:100120004040040404040403040502020202040320
:100130000202020206060606060604040202020481
:10014000000000002300260029002C002F000000E2
:100150000000250028002B002E00310000000000C8
:10016000240027002A002D003000080B00020202A4
:100170000100090400000102020000052400100132
:1001800005240101010424020605240600010705D7
:10019000810310004009040100020A000000070565
:1001A0000202400000070583024000001201000225
:1001B000EF020140412341800001010203011201CD
:1001C00000020000004041234180000101020301C0
:1001D00041726475696E6F204C4C430041726475C6
:1001E000696E6F2059756E000403090447018D077D
:1001F000730D370F650111241FBECFEFDAE0DEBFAC
:10020000CDBF12E0A0E0B1E0E8E1F4E302C0059068
:100210000D92A432B107D9F723E0A4E2B2E001C005
:100220001D92A937B207E1F711E0C4EFD1E004C095
:100230002297FE010E947417CC3ED107C9F70E9495
:100240006E160C94FF190C94000081E080933E021E
:100250000E94D90A60933A0270933B0280933C0259
:1002600090933D0208958FE392E00E94421585E449
:1002700092E00E9442158BE492E00E94421581E5D3
:1002800092E00E94421587E592E00C94421566E3E5
:1002900071E087E592E00E94B0156FE471E081E5BE
:1002A00092E00E94B01564E571E08BE492E00E9458
:1002B000B01569E571E085E492E00E94B0156FE544
:1002C00071E08FE392E00C94B0150C9433010F931E
:1002D0001F93CF93DF93CDB7DEB7C056D1090FB6CA
:1002E000F894DEBF0FBECDBF8C011C821B8248EE8E
:1002F00053E060E070E04D835E836F83788786EE25
:1003000091E09A8389838DE592E09E878D871A8A92
:100310001B8A1C8A67E671E0CE018B5A9F4F0E94B0
:10032000B015BE016B5A7F4FCE0101960E9458094D
:10033000CE018B5A9F4F0E94421567E572E0CE01B5
:100340008B5A9F4F0E94DD15B801CE018B5A9F4FEB
:100350000E945A16BC01CE01855A9F4F0E94DD159E
:10036000CE018B5A9F4F0E944215BE01655A7F4FA6
:10037000CE0101960E944A08CE0101960E94110901
:10038000CE0101960E9415081816190654F4CE01E4
:1003900001960E941F08682F81E792E00E94FA0FE1
:1003A000EFCF81E792E00E94B30CCE01855A9F4FB8
:1003B0000E944215CE0101960E945109C05ADF4F9A
:1003C0000FB6F894DEBF0FBECDBFDF91CF911F9166
:1003D0000F910895AF92BF92CF92DF92EF92FF926A
:1003E0000F931F93CF93DF93CDB7DEB72C970FB644
:1003F000F894DEBF0FBECDBF0E94D90A20913E0205
:100400002223B1F000913A0210913B0220913C026C
:1004100030913D026B017C01C01AD10AE20AF30A55
:1004200045EFC41641E0D406E104F1040CF087C1A5
:100430000091360210913702209138023091390232
:100440006B017C01C01AD10AE20AF30A49EEC41614
:1004500043E0D406E104F1040CF47FC0609336025B
:1004600070933702809338029093390287E10E949B
:10047000860B8C016CE671E081E792E00E94DB0F55
:100480004AE050E0B80181E792E00E94AF10B80165
:10049000882777FD8095982F1F921F921F9225E045
:1004A0002F93A12CB12C650116EEE12EF12C00E06A
:1004B00010E027E731E040E050E00E94FB146B01C0
:1004C0007C018B0164E771E081E792E00E94DB0F21
:1004D0004AE050E0B60181E792E00E94B7100F9029
:1004E0000F900F900F908091240290912502C816D2
:1004F000D90699F10230110544F080912E029091B5
:100500002F02892B11F000E010E061E572E0CE01CE
:1005100007960E94DD156DE471E0CE0107960E94FA
:100520001916B801CE0107960E942916BE01695F0F
:100530007F4FCE0101960E94DD15CE0101960E94EB
:100540006701CE0101960E94421510932502009387
:100550002402CE0107960E94421585E00E94630C9A
:100560008C0180913402909135020817190751F0DF
:100570000E94D90A60932602709327028093280272
:10058000909329020E94D90AC0902602D090270297
:10059000E0902802F09029026C197D098E099F09CC
:1005A000C0900A01D0900B01E0900C01F0900D0179
:1005B000C616D706E806F90698F5809132029091A2
:1005C00033020817190761F160E871E081E792E0F2
:1005D0000E94DB0F4AE050E0B80181E792E00E9400
:1005E000AF106FE871E081E792E00E94DB0F60914D
:1005F0003E0270E04AE050E081E792E00E94B710CE
:100600008091320290913302892B21F480913E0235
:10061000811198C0109333020093320210923E026F
:10062000109335020093340284E00E94630C01E0D1
:1006300010E0892B11F000E010E0809130029091E1
:1006400031020817190751F00E94D90A60932A0253
:1006500070932B0280932C0290932D020E94D90A52
:10066000C0902A02D0902B02E0902C02F0902D0234
:100670006C197D098E099F09C0900A01D0900B0169
:10068000E0900C01F0900D01C616D706E806F906B9
:1006900008F040C080912E0290912F020817190790
:1006A000C9F110932F0200932E026CE971E081E7EB
:1006B00092E00E94DB0F60912E0270912F024AE0BF
:1006C00050E081E792E00E94B71080912E02909155
:1006D0002F02892BF9F061E572E0CE0107960E94A6
:1006E000DD1563EB71E0CE0107960E941916BE017D
:1006F000695F7F4FCE0101960E94DD15CE01019604
:100700000E946701CE0101960E944215CE01079614
:100710000E94421510933102009330022C960FB6BE
:10072000F894DEBF0FBECDBFDF91CF911F910F9127
:10073000FF90EF90DF90CF90BF90AF900895109210
:100740003E0276CE66EB71E081E792E00E94E80F10
:1007500065E472E0CE0101960E94DD15CE0101969E
:100760000E946701CE0101960E94421553CFCF939C
:10077000DF93CDB7DEB7CA55D1090FB6F894DEBF07
:100780000FBECDBF1C821B8288EE93E0A0E0B0E0DC
:100790008D839E83AF83B88786EE91E09A838983A9
:1007A0008DE592E09E878D871A8A1B8A1C8A62ECEF
:1007B00071E0CE018B5A9F4F0E94B015BE016B5A5B
:1007C0007F4FCE0101960E945809CE018B5A9F4F50
:1007D0000E94421566EC71E0CE018B5A9F4F0E9439
:1007E000B015BE016B5A7F4FCE0101960E944A0898
:1007F000CE018B5A9F4F0E944215CE0101960E9456
:100800001109CE0101960E9415081816190654F414
:10081000CE0101960E941F08682F81E792E00E9496
:10082000DD0FEFCF81E792E00E94B30CCE0101967D
:100830000E945109C65ADF4F0FB6F894DEBF0FBEB3
:10084000CDBFDF91CF910895CF93DF9300D000D03B
:1008500000D0CDB7DEB761E08DE00E94F40B60E020
:100860008DE00E942D0C26E040E950ED63E070E041
:1008700080916602909167020E94730E8DE592E06E
:100880000E94860661E08DE00E942D0C40E855E252
:1008900060E070E081E792E00E946D0D61E086E12A
:1008A0000E94F40B60E086E10E942D0C62E087E17B
:1008B0000E94F40B62E085E00E94F40B62E084E0A9
:1008C0000E94F40B62E082E00E94F40B42E050E0F0
:1008D00065E271E081E00E947C096BE472E0CE0188
:1008E00001960E94DD15CE0101960E946701CE019E
:1008F00001960E9442150E94B70326960FB6F894FF
:10090000DEBF0FBECDBFDF91CF910895FC012381E3
:1009100034812627022E2295207F2025032E322F78
:1009200022952F700226269532272327220F220F89
:10093000220F2025FC01348323830895CF93DF9376
:10094000EC018D819E81DC01ED91FC916C81019027
:10095000F081E02D09958D819E81DC01ED91FC9166
:100960000190F081E02D6B81DF91CF9109948F92FE
:100970009F92AF92BF92CF92DF92EF92FF92CF936E
:10098000DF93EC016B010E94D90A4B015C01E12C61
:10099000F12C8D819E81DC01ED91FC910680F78127
:1009A000E02D099597FF0DC00E94D90A68197909B1
:1009B0008A099B096C157D058E059F0550F38FEF05
:1009C0009FEFDF91CF91FF90EF90DF90CF90BF909E
:1009D000AF909F908F900895CF93DF93EC018D811E
:1009E0009E81DC01ED91FC910480F581E02D09955B
:1009F0001816190654F48D819E81DC01ED91FC914D
:100A00000680F781E02D0995EACFDF91CF91089517
:100A10002F923F924F925F926F927F928F929F920E
:100A2000AF92BF92CF92DF92EF92FF920F931F93FC
:100A3000CF93DF93CDB7DEB72D970FB6F894DEBF17
:100A40000FBECDBF3C011B013C832B83BF82AE8216
:100A50005801AC0CBD1CA40EB51EBD824B2C512CF4
:100A6000CA01860F971F99878887D901A00FB11FE8
:100A7000BB87AA87F601EE0DFF1DFD87EC87D3012A
:100A800018968C91581608F026C1EFEFFFEFD301AE
:100A90001496FC93EE93139715968D919C9116974F
:100AA000DC01ED91FC910190F081E02D6FEF099553
:100AB0006FEFC3010E948604F30185819681DC01FA
:100AC000ED91FC910190F081E02DD3016C9109959D
:100AD000F3016081C3010E948604D30115968D91B4
:100AE0009C911697DC01ED91FC910190F081E02D35
:100AF0006D810995642DC3010E948604F3018581EF
:100B00009681DC01ED91FC910190F081E02D6A2D40
:100B100009956A2DC3010E94860461018885998523
:100B2000C816D906A1F0F301858196818601DC0102
:100B3000ED91FC910190F081E02DD6016D916D0158
:100B40000995F8016081C3010E948604E7CFCB803C
:100B5000DC808A859B85C816D906B1F0D30115962D
:100B60008D919C9116978601DC01ED91FC9101908D
:100B7000F081E02DD6016D916D010995F80160813C
:100B8000C3010E948604E5CF87018C859D850817E7
:100B90001907B1F0D30115968D919C9116976801B4
:100BA000DC01ED91FC910190F081E02DD8016D9177
:100BB0008D010995F6016081C3010E948604E5CF8D
:100BC000C3010E949E0464E670E0C3010E94B70462
:100BD0008F3F910509F074C0EFEFFFEFD30114963A
:100BE000FC93EE9313976FEFC3010E94860465E0B8
:100BF00070E0C3010E94B704D3016C91262F30E04E
:100C00008217930709F05CC0C3010E9486046AE062
:100C100070E0C3010E94B7048C0197FD51C0682F9A
:100C2000C3010E9486046AE070E0C3010E94B70419
:100C30006C0197FD45C0682FC3010E9486040A839A
:100C4000198209811A810C0D1D1DC12CD12C65E062
:100C500070E0C301C016D106A1F0C814D90489F010
:100C60000E94B70497FD09C0EE81FF81EC0DFD1DC8
:100C70008083682FC3010E948604BFEFCB1ADB0A72
:100C8000E6CF0E94B7046C0197FD1AC065E070E0E2
:100C9000C3010E94B70497FD13C0DC2CCC24C80EFE
:100CA000D91EF301838194818C159D0549F48081BF
:100CB0008F5F8083C8018016910678F4C4010DC04F
:100CC000539464E670E080E090E00E94080BC3015A
:100CD0000E94EC04D4CE8FEF9FEF2D960FB6F894C0
:100CE000DEBF0FBECDBFDF91CF911F910F91FF905F
:100CF000EF90DF90CF90BF90AF909F908F907F90BC
:100D00006F905F904F903F902F9008953F924F9239
:100D10005F926F927F928F929F92AF92BF92CF928B
:100D2000DF92EF92FF920F931F93CF93DF93CDB794
:100D3000DEB72E970FB6F894DEBF0FBECDBF3C01D5
:100D4000DC0117968C9117978111CFC081E017961F
:100D50008C93C3010E94EC0468EE73E080E090E0A5
:100D60000E94080BF30185819681DC01ED91FC91D5
:100D70000480F581E02D09951816190654F355E005
:100D8000552E4424439462E3362EECE2F1E0DE017A
:100D90001696852D01900D928A95E1F7F301408614
:100DA000812C912CA12CB12CC12CD12CE12CF12C1B
:100DB00000E010E020E030E045E050E0BE016A5F76
:100DC0007F4FC3010E94080563E0D30115968D9102
:100DD0009C9116970E94DD0F6AEF70E080E090E032
:100DE0000E94080B68ED70E0F301858196810E94F6
:100DF000B80F6AEF70E080E090E00E94080B66EDAB
:100E000070E0D30115968D919C9116970E94B80FB2
:100E100064EF71E080E090E00E94080B6AEC70E003
:100E2000F301858196810E94B80F64EF71E080E044
:100E300090E00E94080BC3010E94EC04E1E3F1E0A2
:100E4000DE011196852D01900D928A95E1F7D3016F
:100E500018963C9244E0842E912CFE013B965F0153
:100E600020E030E045E050E0BE016F5F7F4FC301FE
:100E70000E9408058F3FFFEF9F0739F468EE73E08B
:100E800080E090E00E94080B80CF2B852111FFCFDE
:100E9000049711F52C8530E02053310944E6429F38
:100EA000C001439F900D11242D8530E0205331095E
:100EB0006AE0629FA001639F500D1124840F951F6B
:100EC0002E8530E020533109820F931FD3011296F3
:100ED0009C938E93119705C084E690E0F301928372
:100EE000818382E3D30118968C932E960FB6F894E3
:100EF000DEBF0FBECDBFDF91CF911F910F91FF904D
:100F0000EF90DF90CF90BF90AF909F908F907F90A9
:100F10006F905F904F903F90089510925D0281EC2A
:100F200092E09093630280936202109264021092A6
:100F300065029093670280936602089508958F92E8
:100F40009F92AF92BF92CF92DF92EF92FF920F9358
:100F50001F9348015901C12CD12CE12CF12C00E048
:100F600010E020E030E00E9408051F910F91FF90F3
:100F7000EF90DF90CF90BF90AF909F908F900895AB
:100F80000F931F93CF93DF9300D01F92CDB7DEB79F
:100F900029E42983FC0126852A836B8300E010E085
:100FA00020E030E043E050E0BE016F5F7F4F84857A
:100FB00095850E949F0781E090E00F900F900F9021
:100FC000DF91CF911F910F910895EF92FF920F93B0
:100FD0001F93CF93DF9300D01F92CDB7DEB77C0174
:100FE000FC018289811117C0138A8FE48983868569
:100FF0008A8380E48B8397012C5E3F4F00E410E0EE
:1010000043E050E0BE016F5F7F4F848595850E946D
:101010009F07F701828B0F900F900F90DF91CF9178
:101020001F910F91FF90EF900895CF93DF93EC0104
:101030000E94E5078A8990E0DF91CF910895CF93D0
:10104000DF93EC010E94E5078A89882359F08150DB
:101050008A8B8B8991E0980F9B8BC80FD11D8C894F
:1010600090E002C08FEF9FEFDF91CF910895CF9373
:10107000DF93EC010E94E5078A89882331F08B8990
:10108000C80FD11D8C8990E002C08FEF9FEFDF91D8
:10109000CF9108950F931F93CF93DF93EC018B01B2
:1010A00064ED71E08F8598890E941916B8018F85CB
:1010B0009889DF91CF911F910F910C9412166F9226
:1010C0007F928F929F92AF92BF92CF92DF92EF92D8
:1010D000FF920F931F93CF93DF9300D01F92CDB752
:1010E000DEB73C0182E58B83D3011F96ED91FC9125
:1010F0005097048115812081318182E0882E912CC6
:10110000FE0131965F01C12CD12CE12CF12C41E084
:1011100050E0BE016D5F7F4F1C968D919C911D9795
:101120000E9408058A81D3011E968C931E971F96F4
:101130000D911C9150970115110531F0C8010E94C5
:101140004215C8010E948316F301108A178689810F
:10115000811102C081E0818B0F900F900F90DF9181
:10116000CF911F910F91FF90EF90DF90CF90BF90A4
:10117000AF909F908F907F906F9008950F931F93E3
:10118000CF93DF9300D01F92CDB7DEB722E729833C
:10119000FC0126852A8301E010E09E012D5F3F4F70
:1011A00042E050E0BE016F5F7F4F848595850E94CD
:1011B0009F0781E09B81913009F080E00F900F90B4
:1011C0000F90DF91CF911F910F9108950F931F936F
:1011D000CF93DF9300D000D0CDB7DEB727E52B83C8
:1011E000FC0126852C8302E010E09E012F5F3F4F1B
:1011F00042E050E0BE016D5F7F4F848595850E947F
:101200009F07898190E0982F88272A81820F911D5E
:101210000F900F900F900F90DF91CF911F910F9132
:101220000895CF93DF93EC010E945F08CE010E94E6
:10123000BE08882339F064E670E080E090E00E9408
:10124000080BF4CFCE01DF91CF910C94E608EF921A
:10125000FF920F931F93CF93DF9300D0CDB7DEB7EC
:101260007C01FC018189882389F087E78983868551
:101270008A8300E010E020E030E042E050E0BE0170
:101280006F5F7F4F848595850E949F07F701118AC4
:101290000F900F90DF91CF911F910F91FF90EF90E2
:1012A000089526EE31E0FC01318320830C94270958
:1012B000EF92FF920F931F93CF93DF9300D0CDB7A0
:1012C000DEB77C0169837A830E94270986E090E07B
:1012D0000E9481168C0169817A810E94DD15F701D7
:1012E000108B07870F900F90DF91CF911F910F9177
:1012F000FF90EF9008950895853008F04CC0E82FD6
:10130000F0E0EE0FFF1FE25FFE4F718360838230DB
:10131000E1F018F4813069F004C0833019F18430B1
:1013200071F1809169008C7F842B80936900E89A29
:10133000089580916900440F551F440F551F837F06
:10134000842B80936900E99A08958091690034E0C4
:10135000440F551F3A95E1F78F7C842B80936900E9
:10136000EA9A08958091690026E0440F551F2A9556
:10137000E1F78F73842B80936900EB9A0895809135
:101380006A0094E0440F551F9A95E1F78F7C842BF7
:1013900080936A00EE9A08951F920F920FB60F92F3
:1013A00011242F933F934F935F936F937F938F936A
:1013B0009F93AF93BF93EF93FF93E0910E01F09152
:1013C0000F010995FF91EF91BF91AF919F918F917F
:1013D0007F916F915F914F913F912F910F900FBE31
:1013E0000F901F9018951F920F920FB60F92112415
:1013F0002F933F934F935F936F937F938F939F931D
:10140000AF93BF93EF93FF93E0911001F09111011F
:101410000995FF91EF91BF91AF919F918F917F912E
:101420006F915F914F913F912F910F900FBE0F9051
:101430001F9018951F920F920FB60F9211242F93A1
:101440003F934F935F936F937F938F939F93AF934C
:10145000BF93EF93FF93E0911201F091130109956F
:10146000FF91EF91BF91AF919F918F917F916F917C
:101470005F914F913F912F910F900FBE0F901F9052
:1014800018951F920F920FB60F9211242F933F932E
:101490004F935F936F937F938F939F93AF93BF937C
:1014A000EF93FF93E0911401F09115010995FF91DD
:1014B000EF91BF91AF919F918F917F916F915F91CC
:1014C0004F913F912F910F900FBE0F901F90189545
:1014D0001F920F920FB60F9211242F933F934F93A9
:1014E0005F936F937F938F939F93AF93BF93EF938C
:1014F000FF93E0911601F09117010995FF91EF918B
:10150000BF91AF919F918F917F916F915F914F911B
:101510003F912F910F900FBE0F901F9018951F9223
:101520000F920FB60F9211242F933F938F939F9397
:10153000AF93BF938091690290916A02A0916B0270
:10154000B0916C023091680223E0230F2D3720F414
:101550000196A11DB11D05C026E8230F0296A11D0D
:10156000B11D209368028093690290936A02A09350
:101570006B02B0936C0280916D0290916E02A0910B
:101580006F02B09170020196A11DB11D80936D0292
:1015900090936E02A0936F02B0937002BF91AF91CF
:1015A0009F918F913F912F910F900FBE0F901F90A1
:1015B00018952FB7F8946091690270916A02809132
:1015C0006B0290916C022FBF08953FB7F894809101
:1015D0006D0290916E02A0916F02B091700226B5DB
:1015E000A89B05C02F3F19F00196A11DB11D3FBF5B
:1015F0006627782F892F9A2F620F711D811D911DEB
:1016000042E0660F771F881F991F4A95D1F708950A
:10161000CF92DF92EF92FF92CF93DF936B017C0129
:101620000E94E50AEB01C114D104E104F10489F040
:101630000E9485160E94E50A6C1B7D0B683E734074
:1016400090F381E0C81AD108E108F108C851DC4FD5
:10165000EACFDF91CF91FF90EF90DF90CF90089588
:10166000789484B5826084BD84B5816084BD85B57D
:10167000826085BD85B5816085BDEEE6F0E0808144
:1016800081608083E1E8F0E0108280818260808365
:10169000808181608083E0E8F0E0808181608083E8
:1016A000E1E9F0E0808182608083808181608083D5
:1016B000E0E9F0E0808181608083E1ECF0E080810E
:1016C0008460808380818260808380818160808368
:1016D000E3ECF0E0808181608083E0ECF0E08081E9
:1016E00082608083E2ECF0E0808181608083EAE7C1
:1016F000F0E080818460808380818260808380814B
:10170000816080838081806880830895823108F0C1
:101710008251E82FF0E0E652FF4FE49180917B0088
:10172000E3FB222720F930E095E0220F331F9A9542
:10173000E1F78F7D822B80937B00E7708091180109
:1017400020E4829FC0011124E82BE0937C0080916B
:101750007A00806480937A0080917A0086FDFCCFC5
:10176000809178002091790090E0922B089590E08C
:10177000FC013197EF30F105B0F5EA5AFF4F0C94B8
:101780007217809180008F7703C0809180008F7DD9
:1017900080938000089580918000877FF9CF84B581
:1017A0008F7702C084B58F7D84BD089580919000AD
:1017B0008F7707C0809190008F7D03C0809190004B
:1017C000877F8093900008958091C0008F7703C039
:1017D0008091C0008F7D8093C00008958091C200E9
:1017E000877F8093C2000895CF93DF9390E0FC0140
:1017F000EC5FFE4F2491FC01EE5DFE4F8491882347
:1018000049F190E0880F991FFC01E45AFE4FA59121
:10181000B491825B9E4FFC01C591D4919FB7611139
:1018200008C0F8948C91209582238C938881822320
:101830000AC0623051F4F8948C91322F3095832392
:101840008C938881822B888304C0F8948C91822B9E
:101850008C939FBFDF91CF9108950F931F93CF93E8
:10186000DF931F92CDB7DEB7282F30E0F901EA51A0
:10187000FF4F8491F901EC5FFE4F1491F901EE5D89
:10188000FE4F04910023C9F0882321F069830E9450
:10189000B70B6981E02FF0E0EE0FFF1FE25BFE4F18
:1018A000A591B4919FB7F8948C91611103C01095E4
:1018B000812301C0812B8C939FBF0F90DF91CF912B
:1018C0001F910F910895CF93DF93282F30E0F901F6
:1018D000EA51FF4F8491F901EC5FFE4FD491F90179
:1018E000EE5DFE4FC491CC2391F081110E94B70BA5
:1018F000EC2FF0E0EE0FFF1FE05CFE4FA591B491DE
:101900002C912D2381E090E021F480E002C080E062
:1019100090E0DF91CF910895CF93DF931F92CDB7E1
:10192000DEB76983DC01ED91FC910280F381E02D4B
:1019300041E050E0BE016F5F7F4F09950F90DF914E
:10194000CF910895CF93DF93EC018C859D8597FF10
:1019500005C082E00E94E0119D878C878C859D8563
:10196000DF91CF91089583E00C945B14FC01848592
:10197000958597FD06C082E00E94881190E001964F
:10198000089582E00E94881190E00895FC0184850A
:10199000958597FD05C02FEF3FEF35872487089584
:1019A00082E00C94E011CF93DF93EC01809124014D
:1019B000882331F083E00E9411121816190634F0C2
:1019C00081E090E09B838A8380E090E0DF91CF917B
:1019D0000895FC0120812E5F208342E450E06AE6F6
:1019E00071E080E80C94AC12FC0121818081813A85
:1019F00059F4213209F05CC047E050E06DE171E03C
:101A000080E00E94AC1267C0813209F051C02332DD
:101A100089F4838190E0982F88273281832BA0E07E
:101A2000B0E08093190190931A01A0931B01B09329
:101A30001C010FC0203239F467E070E08DE191E0C5
:101A40000E94DD120AC0223221F482818093240197
:101A500004C02D7F203209F03EC080911D0190917D
:101A60001E01A0911F01B0912001803B9440A1056F
:101A7000B10501F58091240180FD1CC08091000812
:101A8000909101089093FF0A8093FE0A87E797E7F9
:101A900090930108809300082BE088E190E00FB656
:101AA000F894A895809360000FBE2093600013C047
:101AB00080E0089588E10FB6F8948093600010925A
:101AC00060000FBEA8958091FE0A9091FF0A909346
:101AD00001088093000881E008952FEF3FEFFC019B
:101AE000358724870895109274021092730288EE4D
:101AF00093E0A0E0B0E08093750290937602A0930B
:101B00007702B093780286EF91E09093720280930F
:101B100071028FEF9FEF90937E0280937D02089574
:101B2000FC01818D228D90E0805C9F4F821B91098A
:101B30008F7399270895FC01918D828D981731F04C
:101B4000828DE80FF11D858D90E008958FEF9FEF56
:101B50000895FC01918D828D981761F0828DDF01CF
:101B6000A80FB11D5D968C91928D9F5F9F73928F90
:101B700090E008958FEF9FEF08958DE29FE0892B0D
:101B800049F080E090E0892B29F00E942D0F81110F
:101B90000C9400000895FC01848DDF01A80FB11D95
:101BA000A35ABF4F2C91848D90E001968F73992793
:101BB000848FA689B7892C93A089B1898C91806480
:101BC0008C93938D848D981306C00288F389E02D41
:101BD00080818F7D80830895CF93DF93EC01888D82
:101BE0008823C9F0EA89FB89808185FD05C0A88921
:101BF000B9898C9186FD0FC00FB607FCF5CF8081A7
:101C000085FFF2CFA889B9898C9185FFEDCFCE01F0
:101C10000E94CB0DE7CFDF91CF910895CF92DF9255
:101C2000FF920F931F93CF93DF931F92CDB7DEB731
:101C30006C0181E0D60158968C9358975B969C91E5
:101C40005B975C968C915C97981307C05096ED91CA
:101C5000FC915197808185FD2EC0F601038D10E027
:101C60000F5F1F4F0F731127F02EF601848DF812AE
:101C700011C00FB607FCF9CFD6015096ED91FC913B
:101C80005197808185FFF1CFC60169830E94CB0DFA
:101C90006981EBCF838DE80FF11DE35AFF4F60831D
:101CA000D6015B960C935B975296ED91FC915397FE
:101CB000808180620CC0D6015696ED91FC915797B9
:101CC00060835096ED91FC91519780818064808370
:101CD00081E090E00F90DF91CF911F910F91FF90E5
:101CE000DF90CF900895BF92CF92DF92EF92FF9254
:101CF000CF93DF93EC016A017B01B22EE889F98969
:101D000082E08083411581EE580761057105A1F0DD
:101D100060E079E08DE390E0A70196010E94311721
:101D20002150310941095109569547953795279515
:101D3000211580E1380798F0E889F989108260E878
:101D400074E88EE190E0A70196010E9431172150BE
:101D50003109410951095695479537952795EC85E5
:101D6000FD853083EE85FF852083188EEC89FD8903
:101D7000B082EA89FB89808180618083EA89FB895E
:101D8000808188608083EA89FB8980818068808384
:101D9000EA89FB8980818F7D8083DF91CF91FF90DD
:101DA000EF90DF90CF90BF9008951F920F920FB6E3
:101DB0000F9211242F938F939F93EF93FF93E091B2
:101DC000D102F091D2028081E091D702F091D80245
:101DD00082FD12C090818091DA028F5F8F73209113
:101DE000DB02821751F0E091DA02F0E0EF53FD4F91
:101DF000958F8093DA0201C08081FF91EF919F91CE
:101E00008F912F910F900FBE0F901F9018951F92DA
:101E10000F920FB60F9211242F933F934F935F931E
:101E20006F937F938F939F93AF93BF93EF93FF93A2
:101E300081EC92E00E94CB0DFF91EF91BF91AF91A9
:101E40009F918F917F916F915F914F913F912F91D2
:101E50000F900FBE0F901F90189581EC92E00E949A
:101E6000900D21E0892B09F420E0822F0895109233
:101E7000C4021092C30288EE93E0A0E0B0E0809329
:101E8000C5029093C602A093C702B093C80286E031
:101E900092E09093C2028093C1028DEC90E0909307
:101EA000CE028093CD028CEC90E09093D002809390
:101EB000CF0288EC90E09093D2028093D10289EC1B
:101EC00090E09093D4028093D3028AEC90E09093B8
:101ED000D6028093D5028EEC90E09093D802809346
:101EE000D7021092DA021092DB021092DC021092FA
:101EF000DD020895CF92DF92EF92FF920F931F932E
:101F0000CF93DF937C016A01EB0100E010E00C1538
:101F10001D0571F06991D701ED91FC910190F0815F
:101F2000E02DC7010995892B19F00F5F1F4FEFCFE7
:101F3000C801DF91CF911F910F91FF90EF90DF903B
:101F4000CF9008956115710581F0DB010D9000209F
:101F5000E9F7AD0141505109461B570BDC01ED91EA
:101F6000FC910280F381E02D099480E090E00895D7
:101F7000EF92FF920F931F93CF93DF938C017B011E
:101F8000C0E0D0E0F701EC0FFD1F6491662359F02B
:101F9000F801A081B181ED91FC91C8010995892BCF
:101FA00011F02196EFCFCE01DF91CF911F910F91CC
:101FB000FF90EF9008950C94A20FDC01ED91FC913D
:101FC0000190F081E02D099462E172E00C94A20F7F
:101FD0000F931F93CF93DF93EC010E94A20F8C010C
:101FE000CE010E94E40F800F911FDF91CF911F91CE
:101FF0000F9108950F931F93CF93DF93EC010E94ED
:10200000DD0F8C01CE010E94E40F800F911FDF9144
:10201000CF911F910F9108958F929F92AF92BF928F
:10202000CF92DF92EF92FF920F931F93CF93DF93A4
:10203000CDB7DEB7A1970FB6F894DEBF0FBECDBF08
:102040007C01C42EE52FCB01D22E19A221E02D1543
:1020500010F02AE0D22E8E010F5D1F4F8D2C912C97
:10206000A12CB12C6C2D7E2FA50194010E9431175B
:102070008C2DD29E80191124015011098A3014F43C
:10208000805D01C0895CF80180832115310541051F
:10209000510521F0C22EE32FCA01E4CFB801C701D8
:1020A0000E94A20FA1960FB6F894DEBF0FBECDBF5F
:1020B000DF91CF911F910F91FF90EF90DF90CF9024
:1020C000BF90AF909F908F900895CF92DF92EF9244
:1020D000FF920F931F93CF93DF93EC016A017B0173
:1020E0002115310579F4E881F9810190F081E02D25
:1020F000642FDF91CF911F910F91FF90EF90DF90B0
:10210000CF9009942A303105E9F477FF1AC06DE2C7
:102110000E94DD0F8C0144275527BA014C195D0937
:102120006E097F092AE0CE010E940C10800F911FDA
:10213000DF91CF911F910F91FF90EF90DF90CF90A3
:1021400008952AE0B701A601CE01DF91CF911F913A
:102150000F91FF90EF90DF90CF900C940C109A01AC
:10216000AB01662757FD6095762F0C9465100F9391
:102170001F93CF93DF93EC019A01AB01662757FDC4
:102180006095762F0E9465108C01CE010E94E40FAD
:10219000800F911FDF91CF911F910F910895615092
:1021A00030F02091F100FC0120830196F8CF2898AF
:1021B00084E680936703089540916203509163031E
:1021C000209160033091610342175307B4F490915A
:1021D000E8009570E1F39091E80092FD19C08093BA
:1021E000F100809162039091630301968F739927A8
:1021F000892B19F48EEF8093E8008091620390910F
:1022000063030196909363038093620381E00895D2
:1022100080E00895CF92DF92EF92FF920F931F9389
:10222000CF93DF931F92CDB7DEB7082F162FF42E72
:10223000862F880F8E5F99830E94DC1083E00E94B6
:10224000DC10E02EC02E9981D92E8C2D8E1981178D
:1022500098F4F601F7FE02C0849101C080810E94CB
:10226000DC10082F80E00E94DC108023FFEFCF1AE3
:10227000DF0A8111EACF01C081E00F90DF91CF9199
:102280001F910F91FF90EF90DF90CF900895809174
:10229000D70081608093D70080EA8093D80089B509
:1022A000806189BD89B5826089BD09B400FEFDCF1A
:1022B00061E070E080E090E00E94080B8091D8001F
:1022C0008F7C80618093D8008091E000807F809334
:1022D000E0000895CF93DF931F92CDB7DEB7198248
:1022E000CE0101960E94E90C0E940D17BE016F5F9E
:1022F0007F4F0E94861689810F90DF91CF910895BC
:102300002FB7FC012083F89467706093E90008956B
:10231000CF93DF931F92CDB7DEB7682FCE01019622
:102320000E9480118091F20099819FBF0F90DF91F0
:10233000CF910895FF920F931F93CF93DF9300D017
:10234000CDB7DEB7F62E8A0190916603992311F07E
:1023500057FF03C08FEF9FEF2BC0682FCE01019670
:102360007A830E9480118091F20090E0A8017A8126
:10237000801791070CF4AC01EF2DF72FF40E84E6D3
:10238000FE1639F02898809367039091F10091939D
:10239000F7CF4115510521F08091F200882321F0FB
:1023A00089818FBFCA0104C08BE68093E800F8CF13
:1023B0000F900F90DF91CF911F910F91FF90089593
:1023C000CF93DF931F92CDB7DEB741E050E0BE015F
:1023D0006F5F7F4F0E949A11019719F4898190E0F5
:1023E00002C08FEF9FEF0F90DF91CF910895CF93B1
:1023F000DF931F92CDB7DEB7682FCE0101960E9402
:1024000080119091E800892F807295FF04C090910F
:10241000F20080E4891B99819FBF0F90DF91CF91DB
:1024200008956F927F928F929F92AF92BF92CF92B8
:10243000DF92EF92FF920F931F93CF93DF931F9240
:10244000CDB7DEB7782E7B01C42EB52E8091660302
:10245000882369F0042F152F8AEFD82E872D8072DC
:10246000982E9AE3A92E872D8074882E11C08FEFA5
:102470009FEF57C0872D0E94F711682E81110CC065
:10248000DA94A9F361E070E080E090E00E94080B2C
:102490000115110579F73BC0282F30E0021713070B
:1024A0000CF4602E672DCE0101960E948011809160
:1024B000E80085FF29C0262D30E0021B130B992070
:1024C00039F06A948FEF6816B1F01092F100F9CFED
:1024D000F701862D77FE07C0815058F094919093B4
:1024E000F1003196F9CF815020F091919093F10055
:1024F000FACFE20EF31E8091E80085FF0FC00115B0
:10250000110511F481100AC089818FBFC1CF5D9878
:1025100084E6809368038C2D9B2D03C0A092E80075
:10252000F3CF0F90DF91CF911F910F91FF90EF901C
:10253000DF90CF90BF90AF909F908F907F906F90E3
:1025400008951092E9001092630310926203909331
:102550006103809360030895CF92DF92FF920F93FF
:102560001F93CF93DF9300D0CDB7DEB7F82E8A014B
:102570006B0101151105B1F0F601F7FE02C084915F
:1025800001C0808149835A830E94DC1001501109E7
:10259000FFEFCF1ADF0A49815A818111EACF8FEF0D
:1025A0009FEF01C0CA010F900F90DF91CF911F9153
:1025B0000F91FF90DF90CF9008951F93CF93DF93FB
:1025C0001F92CDB7DEB7162F2091E80022FFFCCF77
:1025D000612F79830E94CF108BEF8093E800812FC9
:1025E0007981972F0F90DF91CF911F9108951F92BE
:1025F0000F920FB60F921124DF92EF92FF920F937A
:102600001F932F933F934F935F936F937F938F937A
:102610009F93AF93BF93EF93FF93CF93DF93CDB788
:10262000DEB76C97DEBFCDBF1092E9008091E80065
:1026300083FF23C168E0CE0145960E94CF1082EF50
:102640008093E8003D8937FF05C08091E80080FF56
:10265000FCCF03C08EEF8093E800832F807609F0D3
:10266000F0C02E894F89D88C21110CC0303829F444
:10267000809165038093F10002C01092F1001092E6
:10268000F100F4C0842F90E09D29213049F43111EC
:10269000EDC0019709F0EAC0809165038D7F0AC003
:1026A000233059F43111E2C0019709F0DFC0809165
:1026B0006503826080936503D9C0253041F4809121
:1026C000E80080FFFCCF40684093E300CFC0263095
:1026D00009F08DC0EB8CFC8C22E0D2122CC080E083
:1026E00090E00E94A1120E946A1199E08E010F5F92
:1026F0001F4FF801292F11922A95E9F79983DA8261
:1027000091E09E8390EA98879AEF998720916203DF
:1027100030916303275F3F4F3C832B838D83C70139
:102720000E94A11249E050E0B80180E00E94AC1282
:102730000E946A119BC0C7010E94A1120E940D173E
:10274000BE016B5E7F4F0E94AF16009719F00CF030
:102750008DC090C081E0D8120EC08B8D9C8D0897E3
:1027600019F481E080935F0380915F0381112FC092
:102770006EEB71E031C0E3E0DE127CC08F8988230C
:1027800049F1823029F440E86BE08CED91E01CC007
:10279000813029F440E86BE080ED91E015C0833092
:1027A00009F068C00E940D178E010F5F1F4FB8011E
:1027B0000E94CE16F80101900020E9F73197E01B46
:1027C000F10B40E06E2FC8010E940A114DC06CEA67
:1027D00071E002C068EE71E06115710509F44AC04C
:1027E000FB01449150E080E80E94AC123FC02730CA
:1027F00009F440C0283021F481E08093F10036C014
:102800002930A1F53370B1F5E6E2F1E081E021E095
:1028100036E39081992361F08093E9002093EB00E7
:1028200091919093EC003093ED008F5F873089F7A2
:102830008EE78093EA001092EA008F898093660306
:1028400015C08B8D9C8D0E94A112898D811105C0B0
:10285000CE0145960E94F40C07C00E940D17BE01E0
:102860006B5E7F4F0E94ED16882321F08EEF8093E0
:10287000E80003C081E28093EB006C960FB6F894F9
:10288000DEBF0FBECDBFDF91CF91FF91EF91BF9122
:10289000AF919F918F917F916F915F914F913F91F8
:1028A0002F911F910F91FF90EF90DF900F900FBE2F
:1028B0000F901F9018958093E9008091F200882373
:1028C00019F08AE38093E80008951F920F920FB6E3
:1028D0000F9211242F933F934F935F936F937F93A6
:1028E0008F939F93AF93BF93CF93EF93FF93C09139
:1028F000E1008091E100837F8093E1008093E1001B
:10290000C3FF0FC01092E90081E08093EB001092AA
:10291000EC0082E38093ED001092660388E08093E0
:10292000F000C2FF19C083E00E945B14809168032D
:10293000882339F08091680381508093680388234D
:1029400089F180916703882339F080916703815072
:1029500080936703882341F1C4FF10C08091E20097
:102960008E7E81608093E2008091E1008F7E809373
:10297000E100809164038E7E806111C0C0FF16C0AB
:102980008091E2008E7E80618093E2008091E10080
:102990008E7E8093E100809164038E7E81608093BF
:1029A000640304C05D9ACDCF289AD6CFFF91EF91F2
:1029B000CF91BF91AF919F918F917F916F915F91D7
:1029C0004F913F912F910F900FBE0F901F90189530
:1029D0001092660310926503109264030E944711DF
:1029E000E1EEF0E080818E7E80838DE08093E200D6
:1029F000559A209A08954F925F926F927F92AF926C
:102A0000BF92CF92DF92EF92FF920F931F93CF93DB
:102A1000DF93CDB7DEB729013A01621B730B840B3C
:102A2000950B29893A894B895C892A193B094C09FC
:102A30005D09298B3A8B4B8B5C8B9B01AC016989BF
:102A40007A898B899C890E942117E418F508060968
:102A50001709A80197010E9453172A0D3B1D4C1D11
:102A60005D1DCA01B901DF91CF911F910F91FF90B8
:102A7000EF90DF90CF90BF90AF907F906F905F907E
:102A80004F900895FC01808191810C942A18CF9376
:102A9000DF93EC0188819981009711F00E942A1838
:102AA000198218821D821C821B821A82DF91CF91AB
:102AB00008950F931F93CF93DF93EC018B016F5F0A
:102AC0007F4F888199810E94B918009731F09983CE
:102AD00088831B830A8381E001C080E0DF91CF916E
:102AE0001F910F910895CF93DF93EC018881998115
:102AF000892B29F08A819B818617970760F4CE0184
:102B00000E945915882341F08C819D81892B19F4ED
:102B1000E881F981108281E0DF91CF910895EF92F1
:102B2000FF920F931F93CF93DF93EC017B018A01F8
:102B3000BA010E947315811104C0CE010E9447158D
:102B400007C01D830C83B701888199810E948C196D
:102B5000CE01DF91CF911F910F91FF90EF900895DB
:102B6000FC01118210821382128215821482611577
:102B7000710559F0FB0101900020E9F7AF014150C8
:102B80005109461B570B0C948F150895CF93DF9373
:102B9000EC01FB018617970761F060817181611577
:102BA000710529F0448155810E948F1502C00E9451
:102BB0004715CE01DF91CF910895FC01118210825B
:102BC00013821282158214820C94C615EF92FF9222
:102BD0000F931F93CF93DF93EC017B010C811D8139
:102BE0006115710511F480E016C04115510591F091
:102BF000040F151FB8010E9473158823A1F32881C3
:102C000039818C819D81B701820F931F0E948C199D
:102C10001D830C8381E0DF91CF911F910F91FF9075
:102C2000EF900895FB0144815581608171810C947E
:102C3000E6156115710559F0FB0101900020E9F7D7
:102C4000AF0141505109461B570B0C94E61580E02B
:102C50000895EF92FF920F931F93CF93DF93CDB719
:102C6000DEB728970FB6F894DEBF0FBECDBF7C014C
:102C7000CB014AE08E010F5F1F4FB8010E949319EC
:102C8000F80101900020E9F7AF0141505109401BC4
:102C9000510BB801C7010E94E61528960FB6F894AB
:102CA000DEBF0FBECDBFDF91CF911F910F91FF907F
:102CB000EF900895CF93DF93EC01FB0144815581A0
:102CC000608171810E94E615811103C0CE010E94CE
:102CD0004715CE01DF91CF91089508950E94300BE2
:102CE0000E946D168EE593E00E94E8140E94240471
:102CF000CDEBDDE00E94EA012097E1F30E94BD0DDB
:102D0000F9CF0C9492170C942A180895EF92FF9221
:102D10000F931F93CF93DF937B01FC01C281D3817B
:102D200000E010E0209781F0E881F9810280F381D2
:102D3000E02DB701CE01099597FD08C0080F191FB6
:102D40000884D985C02DEECFC80102C08FEF9FEF58
:102D5000DF91CF911F910F91FF90EF9008950F9306
:102D60001F93CF93DF938B01FC01C281D381209706
:102D700071F0E881F9810480F581E02DB801CE0180
:102D80000995009731F40884D985C02DF0CF80E0F3
:102D900090E0DF91CF911F910F9108950F931F93B2
:102DA000CF93DF938B01FC01C281D381209771F017
:102DB000E881F9810680F781E02DB801CE010995FF
:102DC000080F111D0884D985C02DF0CFF80110829D
:102DD000DF91CF911F910F9108950F931F93CF9380
:102DE000DF938B01FC01C281D381209771F0E881D0
:102DF000F9810190F081E02DB801CE010995811192
:102E000006C00884D985C02DF0CF80E001C081E0E4
:102E1000DF91CF911F910F91089580916D038111E2
:102E20000DC082E08093690384E080936A0310926E
:102E30006C0310926B0381E080936D0389E693E04D
:102E40000895DB018F939F930E947817BF91AF91F4
:102E5000A29F800D911DA39F900DB29F900D1124F4
:102E60000895A1E21A2EAA1BBB1BFD010DC0AA1FCB
:102E7000BB1FEE1FFF1FA217B307E407F50720F0E3
:102E8000A21BB30BE40BF50B661F771F881F991F5E
:102E90001A9469F760957095809590959B01AC01A7
:102EA000BD01CF010895052E97FB1EF400940E94EA
:102EB0006A1757FD07D00E94311707FC03D04EF464
:102EC0000C946A1750954095309521953F4F4F4F80
:102ED0005F4F089590958095709561957F4F8F4FC6
:102EE0009F4F0895EE0FFF1F0590F491E02D099478
:102EF0000E948317A59F900DB49F900DA49F800DF5
:102F0000911D11240895A29FB001B39FC001A39FFA
:102F1000700D811D1124911DB29F700D811D112412
:102F2000911D0895CF93DF938230910510F482E0D4
:102F300090E0E0917703F091780320E030E0A0E0AA
:102F4000B0E0309739F14081518148175907B8F006
:102F50004817590771F482819381109729F01396CD
:102F60009C938E9312972CC0909378038093770351
:102F700027C02115310531F04217530718F0A90178
:102F8000DB0101C0EF019A01BD01DF010280F38185
:102F9000E02DD7CF21153105F9F0281B390B24304E
:102FA000310580F48A819B816115710521F0FB0157
:102FB0009383828304C09093780380937703FE0108
:102FC000329644C0FE01E20FF31F81939193225089
:102FD0003109398328833AC02091750330917603F3
:102FE000232B41F4209102013091030130937603A9
:102FF00020937503209100013091010121153105C5
:1030000041F42DB73EB74091040150910501241BB6
:10301000350BE0917503F0917603E217F307A0F406
:103020002E1B3F0B2817390778F0AC014E5F5F4F1E
:103030002417350748F04E0F5F1F509376034093D7
:1030400075038193919302C0E0E0F0E0CF01DF913E
:10305000CF910895CF93DF93009709F487C0FC01C7
:10306000329713821282C0917703D0917803209710
:1030700081F420813181280F391F8091750390914F
:1030800076038217930779F5F0937603E09375033F
:103090006DC0DE0120E030E0AE17BF0750F412969D
:1030A0004D915C9113979D014115510509F1DA018C
:1030B000F3CFB383A28340815181840F951F8A1778
:1030C0009B0771F48D919C911197840F951F029627
:1030D0009183808312968D919C9113979383828321
:1030E0002115310529F4F0937803E09377033EC06E
:1030F000D9011396FC93EE9312974D915D91A40F15
:10310000B51FEA17FB0779F480819181840F951F21
:103110000296D90111969C938E9382819381139686
:103120009C938E931297E0E0F0E08A819B81009758
:1031300019F0FE01EC01F9CFCE0102962881398108
:10314000820F931F2091750330917603281739075A
:1031500069F4309729F4109278031092770302C033
:1031600013821282D0937603C0937503DF91CF91BF
:103170000895A0E0B0E0EFEBF8E10C94CC19EC017D
:10318000CB01209719F40E949217B8C0FE01E60FF8
:10319000F71F9E0122503109E217F30708F4ACC073
:1031A000D9010D911C91119706171707B8F005303A
:1031B000110508F49FC0A80144505109461757074C
:1031C00008F498C002501109061B170B01931193C4
:1031D0006D937C93CF010E942A188CC05B01A01ACA
:1031E000B10A4E01800E911EA0917703B091780331
:1031F000612C712C60E070E0109709F449C0A815AB
:10320000B905C9F5ED90FC901197670142E0C40E35
:10321000D11CCA14DB0478F147018A189B086401A9
:1032200042E0C40ED11C1296BC9012971396AC913A
:10323000B5E0CB16D10440F0B282A38391828082A4
:10324000D9018D939C9309C00E5F1F4F0E0D1F1D5A
:10325000F90111830083EB2DFA2F6115710531F00F
:10326000DB011396FC93EE93129744C0F09378031E
:10327000E09377033FC06D917C91119766167706B6
:1032800008F43B01BD0112960D90BC91A02DB4CF66
:10329000609175037091760368157905E9F46816F5
:1032A0007906D0F44091000150910101411551057A
:1032B00041F44DB75EB76091040170910501461B62
:1032C000570BE417F507C0F4F0937603E09375030A
:1032D000F901918380830EC00E9492177C010097B0
:1032E00059F0A801BE010E948319CE010E942A183C
:1032F000C70104C0CE0102C080E090E0CDB7DEB7C8
:10330000EEE00C94E819FB01DC0102C001900D9283
:1033100041505040D8F70895FB01DC0101900D9217
:103320000020E1F70895BB274A3031F4992322F4B5
:10333000BDE2909581959F4F0C949F19BB27FB018F
:103340005527AA27880F991FAA1FA41710F0A41B9E
:1033500083955051B9F7A05DAA3308F0A95DA193F8
:10336000009779F7B111B1931192CB010C94B81970
:10337000DC01FC01672F71917723E1F7329704C0DC
:103380007C916D9370836291AE17BF07C8F3089567
:103390002F923F924F925F926F927F928F929F9265
:1033A000AF92BF92CF92DF92EF92FF920F931F9353
:1033B000CF93DF93CDB7DEB7CA1BDB0B0FB6F89404
:1033C000DEBF0FBECDBF09942A88398848885F8444
:1033D0006E847D848C849B84AA84B984C884DF80B5
:1033E000EE80FD800C811B81AA81B981CE0FD11D99
:1033F0000FB6F894DEBF0FBECDBFED01089511E00A
:10340000C4EFD1E004C0FE010E9474172296C63FAB
:08341000D107C9F7F894FFCFC2
:1034180000007903800001000000320000007B09F1
:103428007B097B097B097B0901FFFFFFFF00E100A6
:10343800000000000000C180810000005858585862
:10344800585858313030687474703A2F2F313732E9
:103458002E32302E31302E343A343536372F006D37
:103468006F76650073746F70007468726F770066AA
:103478006F7277617264006375726C00466C657870
:10348800203D2000203A207370656564203D2000AF
:1034980074696C74206368616E6765643A20002003
:1034A800616E642073686F6F6B3D2000436C6F73AF
:1034B8006564207374617465206368616E67656410
:1034C8003A20002F30005468726F7720626F6F6B5C
:1034D8002100636174002F70726F632F63707569C8
:1034E8006E666F00FE002F62696E2F617368002D93
:1034F800630000000000C0077A0F15081F0837088E
:103508009E07000000008C0CD30CB60CC60CA20C55
:10351800B30C000000000E0E7A0F900DA90D9B0D44
:10352800EC0D0D0A006E616E00696E66006F7666BE
:04353800002E000061
:00000001FF
